:1000000049C0000065C0000063C0000061C000007E
:100010005FC000005DC000005BC0000059C0000070
:1000200057C0000055C0000053C0000051C0000080
:100030000C94500B4DC000004BC0000049C00000A4
:10004000CCC5000045C0000043C0000041C0000016
:100050003FC000003DC000003BC0000039C00000B0
:1000600037C000005EC0000033C0000031C0000097
:100070002FC000002DC000002BC0000029C00000D0
:1000800027C0000025C0000023C0000021C00000E0
:100090001FC0000011241FBECFEFD0E1DEBFCDBFD7
:1000A00011E0A0E0B1E0E2EFFAE100E00BBF02C036
:1000B00007900D92AA30B107D9F721E0AAE0B1E08C
:1000C00001C01D92A334B207E1F770D30C94770DF1
:1000D00097CFCF93DF93CDB7DEB78CE790E021E4E5
:1000E000FC0120838AE790E02FE8FC0120838AE767
:1000F00090E02AE730E0F90120812064FC012083B0
:100100000000DF91CF910895CF93DF93CDB7DEB795
:100110008AE790E02FECFC0120830000DF91CF9173
:1001200008951F920F9200905F000F92112400908B
:100130005B000F922F933F938F939F93EF93FF93C7
:10014000CF93DF93CDB7DEB780910A01882F90E07F
:1001500028E730E0F90120813181880F991F875EFF
:100160009E4FFC013183208380910A018F5F809331
:100170000A0180910A01843011F410920A018CE77F
:1001800090E020910A012064FC0120830000DF91AF
:10019000CF91FF91EF919F918F913F912F910F9070
:1001A00000925B000F9000925F000F901F901895D7
:1001B000CF93DF93CDB7DEB728970FB6F894DEBFA5
:1001C0000FBECDBF80912D01882369F180E090E8BA
:1001D000A5E2B4E489839A83AB83BC83809119013F
:1001E00090911A01CC01A0E0B0E0BC01CD010E94C9
:1001F0005E0CDC01CB0129813A814B815C81BC0121
:10020000CD010E94100D88234CF069817A818B8189
:100210009C810E94320CDC01CB013AC08091190113
:1002200090911A0135C080912E01882369F180E0F8
:1002300090E4A2E1B4E48D839E83AF83B88780917C
:10024000190190911A01CC01A0E0B0E0BC01CD01F0
:100250000E945E0CDC01CB012D813E814F815885CF
:10026000BC01CD010E942E0C18164CF06D817E81D0
:100270008F8198850E94320CDC01CB0109C08091EE
:10028000190190911A0104C08091190190911A01ED
:1002900028960FB6F894DEBF0FBECDBFDF91CF9189
:1002A0000895CF93DF93CDB7DEB728970FB6F894B4
:1002B000DEBF0FBECDBF80912D01882369F186E698
:1002C00096EAA7E0B4E489839A83AB83BC838091E8
:1002D000190190911A01CC01A0E0B0E0BC01CD0160
:1002E0000E945E0CDC01CB0129813A814B815C814B
:1002F000BC01CD010E94100D88234CF069817A81E8
:100300008B819C810E94320CDC01CB013AC0809130
:10031000190190911A0135C080912E01882369F14D
:1003200080E090E0AEEEB3E48D839E83AF83B88728
:1003300080911B0190911C01CC01A0E0B0E0BC01B8
:10034000CD010E945E0CDC01CB012D813E814F81ED
:100350005885BC01CD010E942E0C18164CF06D8101
:100360007E818F8198850E94320CDC01CB0109C00F
:1003700080911B0190911C0104C080911B01909100
:100380001C0128960FB6F894DEBF0FBECDBFDF91DB
:10039000CF910895CF93DF93CDB7DEB780911D0144
:1003A00090911E01DF91CF910895CF93DF93CDB748
:1003B000DEB780911F0190912001DF91CF910895C8
:1003C000CF93DF9300D0CDB7DEB78A8319828A81BD
:1003D0008830C0F08DED90E0FC018081882F90E0A6
:1003E0002A81222F30E02850310902C09595879547
:1003F0002A95E2F78170992721E0892B09F020E006
:10040000298315C08CED90E0FC018081882F90E05D
:100410002A81222F30E002C0959587952A95E2F730
:100420008170992721E0892B09F020E029838981B7
:100430000F900F90DF91CF910895CF93DF9300D06D
:10044000CDB7DEB788ED90E0FC011082198256C06E
:100450008DEE90E02981222F30E022953295307F79
:100460003227207F32272860FC0120838EEE90E027
:10047000FC0110828FEE90E0FC01108280EF90E092
:10048000FC01108281EF90E0FC01108282EF90E08D
:10049000FC01108283EF90E0FC01108284EF90E079
:1004A000FC01108285EF90E0FC01108286EF90E065
:1004B000FC01108287EF90E0FC0110821A8218C0C4
:1004C0008DEE90E02981222F30E022953295307F09
:1004D0003227207F3227322F2A81232B2860FC01EC
:1004E00020838AEF90E0FC0110828A818F5F8A83EB
:1004F0008A81883028F389818F5F898389818F3051
:1005000008F4A6CF82EE90E022E0FC01208383EE87
:1005100090E02CE0FC01208384EE90E027E3FC01D6
:1005200020838BED90E0FC01108288ED90E028EDB7
:1005300030E0F90120812260FC01208300000F904F
:100540000F90DF91CF910895CF93DF9300D000D02B
:100550001F92CDB7DEB79B838A837D836C838DEE3C
:1005600090E02A813B81F90124812295207FFC01C2
:1005700020838A819B81FC01848122DF882309F406
:1005800050C083EF90E02A813B81F90120813181C5
:10059000369527953695279536952795FC01208326
:1005A00082EF90E02A813B81F901208131812295FF
:1005B000220F207EFC01208381EF90E0FC0110825D
:1005C00080EF90E024E0FC01208387EF90E02A8117
:1005D0003B81F90122813381369527953695279500
:1005E00036952795FC01208386EF90E02A813B8198
:1005F000F901228133812295220F207EFC01208384
:1006000085EF90E0FC01108284EF90E0FC01108205
:100610008FEE90E028ECFC0120838EEE90E0FC0150
:100620001082198224C08DEE90E02A813B81F9016D
:100630002481222F30E022953295307F3227207F8F
:100640003227322F2981232B2860FC0120838981C6
:10065000882F90E02C813D81820F931F2AEF30E09C
:10066000F9012081FC01208389818F5F8983898141
:100670008830C8F200000F900F900F900F900F90ED
:10068000DF91CF910895CF93DF9300D000D01F92D8
:10069000CDB7DEB79B838A837D836C83198224C0A8
:1006A0008DEE90E02A813B81F9012481222F30E0F8
:1006B00022953295307F3227207F3227322F2981B1
:1006C000232B2860FC0120838AEF90E02981222FD0
:1006D00030E04C815D81240F351FF9012081FC0140
:1006E000208389818F5F898389818830C8F28DEE6C
:1006F00090E02A813B81F90124812295207FFC0131
:1007000020838A819B81FC0184815ADE882309F43D
:1007100044C08EEE90E0FC01108283EF90E02A81CD
:100720003B81F901208131813695279536952795B2
:1007300036952795FC01208382EF90E02A813B814A
:10074000F901208131812295220F207EFC01208336
:1007500081EF90E0FC01108280EF90E0FC011082BC
:1007600087EF90E0FC01108286EF90E0FC011082A0
:1007700085EF90E0FC01108284EF90E0FC01108294
:100780008EEE90E0FC0110828FEE90E028E4FC01F8
:1007900020838EEE90E0FC01108200000F900F90FD
:1007A0000F900F900F90DF91CF910895CF93DF932B
:1007B000CDB7DEB7AD970FB6F894DEBF0FBECDBF95
:1007C000C0D187DCBAD6F2D138DE81E092E09A83DC
:1007D00089838FEF9FE09C838B831D8280E096E06E
:1007E0009F878E878FEF9FEF998B888B81E08A8B15
:1007F00080E092E09C8F8B8F8FEF9FEF9E8F8D8F8D
:1008000082E08F8FD5DC99A788A788A599A5CC0110
:10081000A0E0B0E0BC01CD010E945E0CDC01CB0188
:10082000BC01CD01F4D6DC01CB018AA79BA7ACA704
:10083000BDA78AA59BA5ACA5BDA5BC01CD0197D63A
:10084000909301018093000178948EE290E02EE273
:1008500030E0F90120812260FC0120838EE290E0EB
:100860002EE230E0F90120812160FC0120832091FB
:10087000130130911401409115015091160180919E
:100880000F0190911001A0911101B0911201281750
:1008900039074A075B07B1F0809113019091140169
:1008A000A0911501B091160180930F019093100152
:1008B000A0931101B093120127DC80910B018F5F8F
:1008C00080930B0180910B018A3008F431C16CD305
:1008D000F4D318D521D6DC01CB01BC01CD0197D6CC
:1008E000DC01CB018AA79BA7ACA7BDA78AA59BA5C6
:1008F000ACA5BDA5BC01CD013AD690930101809372
:10090000000180910C018F5F80930C0110920B010C
:1009100080913F0190914001A0914101B09142012D
:1009200020E030E0A901BC01CD0198D718164CF0A9
:100930001092290110922A0110922B0110922C0181
:1009400010C080913F0190914001A0914101B09170
:1009500042018093290190932A01A0932B01B09327
:100960002C018091370190913801A0913901B0910B
:100970003A0120E030E0A901BC01CD016FD7181683
:100980004CF010922F011092300110923101109210
:10099000320110C08091370190913801A091390146
:1009A000B0913A0180932F0190933001A0933101CF
:1009B000B09332018091330190913401A0913501BF
:1009C000B091360120E030E0A901BC01CD0146D74D
:1009D00018164CF01092210110922201109223015E
:1009E0001092240110C08091330190913401A091A4
:1009F0003501B09136018093210190932201A0939B
:100A00002301B093240180913B0190913C01A0917E
:100A10003D01B0913E0120E030E0A901BC01CD01D3
:100A20001DD718164CF01092250110922601109235
:100A300027011092280110C080913B0190913C0148
:100A4000A0913D01B0913E01809325019093260134
:100A5000A0932701B09328018091290190912A0148
:100A6000A0912B01B0912C01BC01CD01FBD6DC0182
:100A7000CB018E8380912F0190913001A0913101A3
:100A8000B0913201BC01CD01EDD6DC01CB018F83E9
:100A90008091210190912201A0912301B091240124
:100AA000BC01CD01DFD6DC01CB0188878091250117
:100AB00090912601A0912701B0912801BC01CD01A0
:100AC000D1D6DC01CB018987809102018A87809190
:100AD00003018B87809104018C87809105018D87AC
:100AE000CE010696BC01CE010196CDDD9E012D5EA4
:100AF0003F4FCE010E96B90127DD9E01205E3F4F8C
:100B0000CE014B96B90120DD8C89882F90E0382FDB
:100B100022278B89882F90E0822B932B90930E01B4
:100B200080930D018DA180932D018EA180932E01C4
:100B300080910C01853008F49ACE26D010920C01D9
:100B400096CECF93DF93CDB7DEB787E290E027E272
:100B500030E0F90120812560FC0120838DE290E0E6
:100B60002DE230E0F90120812760FC01208380E341
:100B700090E020E330E0F9012081207FFC01208318
:100B80000000DF91CF910895CF93DF93CDB7DEB70B
:100B900088E290E028E230E0F901308124E0232768
:100BA000FC0120830000DF91CF910895CF93DF9364
:100BB000CDB7DEB784E490E02BE0FC0120838EE625
:100BC00090E022E0FC01208387E490E029EFFC0123
:100BD00020830000DF91CF9108951F920F92009023
:100BE0005F000F9211248F939F93AF93BF93CF9386
:100BF000DF93CDB7DEB78091130190911401A091DE
:100C00001501B09116010196A11DB11D809313012C
:100C100090931401A0931501B09316010000DF9189
:100C2000CF91BF91AF919F918F910F9000925F00F4
:100C30000F901F901895EF92FF920F931F93CF93F1
:100C4000DF93CDB7DEB72091190130911A01809161
:100C50001B0190911C012817390711F481E067C02E
:100C60008091190190911A01039730F080911B0136
:100C700090911C01039710F480E059C080911901F4
:100C800090911A018F3F934038F480911B0190910D
:100C90001C018F3F934010F080E049C080913701E4
:100CA00090913801A0913901B0913A0120E030E0F3
:100CB00048EC51E4BC01CD016DD5DC01CB017C01D8
:100CC0008D0180913F0190914001A0914101B0912F
:100CD00042019C01AD01C801B701C0D5882314F4BD
:100CE00081E025C08091370190913801A0913901B0
:100CF000B0913A0120E030E048EC51E4BC01CD0174
:100D000048D5DC01CB017C018D0180913F019091A0
:100D10004001A0914101B09142019C01AD01C80187
:100D2000B7017ED6181614F481E001C082E0DF918D
:100D3000CF911F910F91FF90EF900895EF92FF9246
:100D40000F931F93CF93DF93CDB7DEB720911D0193
:100D500030911E0180911F019091200128173907C1
:100D600011F480E067C080911D0190911E010297EF
:100D700030F080911F0190912001029710F480E0E3
:100D800059C080911D0190911E018F3F934038F40E
:100D900080911F01909120018F3F934010F080E0DF
:100DA00049C080913B0190913C01A0913D01B091DF
:100DB0003E0120E030E048EC51E4BC01CD01EAD432
:100DC000DC01CB017C018D018091330190913401D4
:100DD000A0913501B09136019C01AD01C801B70168
:100DE0003DD5882314F481E025C080913B0190918A
:100DF0003C01A0913D01B0913E0120E030E048EC83
:100E000051E4BC01CD01C5D4DC01CB017C018D01D5
:100E10008091330190913401A0913501B091360158
:100E20009C01AD01C801B701FBD5181614F481E08F
:100E300001C082E0DF91CF911F910F91FF90EF9061
:100E40000895EF92FF920F931F93CF93DF93CDB747
:100E5000DEB78091330190913401A0913501B091BA
:100E6000360120E030E048EC51ECBC01CD01F6D475
:100E7000882314F480E091C0809133019091340173
:100E8000A0913501B091360120E030E048EC51E40A
:100E9000BC01CD017FD4DC01CB017C018D018091AF
:100EA0003F0190914001A0914101B09142019C010C
:100EB000AD01C801B701D2D4882314F480E06DC01D
:100EC0008091330190913401A0913501B0913601A8
:100ED00020E030E048EC51E4BC01CD015AD4DC0103
:100EE000CB017C018D0180913F0190914001A09147
:100EF0004101B09142019C01AD01C801B70190D5FB
:100F0000181614F480E049C080913B0190913C0197
:100F1000A0913D01B0913E0120E030E048EC51E469
:100F2000BC01CD0137D4DC01CB017C018D01809166
:100F3000370190913801A0913901B0913A019C019B
:100F4000AD01C801B7018AD4882314F480E025C01C
:100F500080913B0190913C01A0913D01B0913E01F7
:100F600020E030E048EC51E4BC01CD0112D4DC01BA
:100F7000CB017C018D018091370190913801A091C6
:100F80003901B0913A019C01AD01C801B70148D5C2
:100F9000181614F480E001C081E0DF91CF911F9119
:100FA0000F91FF90EF900895CF93DF93CDB7DEB709
:100FB000FFD8CC01A0E0B0E0BC01CD017FD4DC01C2
:100FC000CB0120E030E842E754E4BC01CD01E1D39D
:100FD000DC01CB012DEA3CEF44E05EEBBC01CD012E
:100FE00023D5DC01CB0180933F0190934001A09376
:100FF0004101B093420155D9CC01A0E0B0E0BC0161
:10100000CD015CD4DC01CB0120E030E44AE454E4BF
:10101000BC01CD01BED3DC01CB0126EF30EC49E1B0
:101020005EEBBC01CD0100D5DC01CB018093370123
:1010300090933801A0933901B0933A0180913F0118
:1010400090914001A0914101B091420120E030E037
:1010500040EA50ECBC01CD0101D4882364F480E067
:1010600090E0A0EAB0EC80933F0190934001A09300
:101070004101B09342018091370190913801A091D4
:101080003901B0913A0120E030E040EA50ECBC0177
:10109000CD01E4D388230CF00CC080E090E0A0EAFE
:1010A000B0EC8093370190933801A0933901B0934D
:1010B0003A010000DF91CF910895CF93DF93CDB730
:1010C000DEB768D9CC01A0E0B0E0BC01CD01F6D319
:1010D000DC01CB0120E030E441E254E4BC01CD016D
:1010E00058D3DC01CB012DEF33E64CEA5EE3BC01C3
:1010F000CD019AD4DC01CB0180933301909334016C
:10110000A0933501B0933601809133019091340161
:10111000A0913501B091360120E030E04CED52E471
:10112000BC01CD017DD4181664F480E090E0ACEDF4
:10113000B2E48093330190933401A0933501B093CE
:10114000360133D9CC01A0E0B0E0BC01CD01B6D36B
:10115000DC01CB0120E030E840EC53E4BC01CD01E0
:1011600018D3DC01CB012FE535E043EB5EEBBC018E
:10117000CD015AD4DC01CB0180933B0190933C011B
:10118000A0933D01B0933E0180913B0190913C01C1
:10119000A0913D01B0913E0120E030E04CED52E4E1
:1011A000BC01CD013DD418160CF00CC080E090E0DD
:1011B000ACEDB2E480933B0190933C01A0933D01E0
:1011C000B0933E010000DF91CF910895CF93DF935C
:1011D000CDB7DEB782E3809302010000DF91CF91AB
:1011E0000895CF93DF93CDB7DEB782E380930301F9
:1011F0000000DF91CF910895CF93DF93CDB7DEB795
:1012000084E6809304010000DF91CF910895CF938D
:10121000DF93CDB7DEB782E3809305010000DF9155
:10122000CF910895CF93DF93CDB7DEB780910301BF
:1012300018162CF480910301815080930301000063
:10124000DF91CF910895CF93DF93CDB7DEB7809133
:10125000020118162CF48091020181508093020142
:101260000000DF91CF910895CF93DF93CDB7DEB724
:101270008091040118162CF4809104018150809310
:1012800004010000DF91CF910895CF93DF93CDB794
:10129000DEB78091050118162CF48091050181506C
:1012A000809305010000DF91CF910895CF93DF93E4
:1012B000CDB7DEB78091330190913401A091350113
:1012C000B091360120E030E048EC51ECBC01CD019A
:1012D000A7D318169CF48091330190913401A0910A
:1012E0003501B091360120E030E048EC51E4BC011A
:1012F000CD01B4D2882314F481E001C080E0DF91F5
:10130000CF910895CF93DF93CDB7DEB717DD882F48
:1013100090E081309105D1F082309105C9F0892BA0
:10132000C9F48EE290E02EE230E0F90120812D7FB9
:10133000FC0120838EE290E02EE230E0F901208172
:101340002E7FFC0120831092030117C06BDF15C0B4
:1013500048DF13C08EE290E02EE230E0F9012081F8
:101360002E7FFC0120838EE290E02EE230E0F90136
:1013700020812D7FFC01208300005DDC882F90E020
:1013800081309105D1F082309105C9F0892BC9F4E3
:101390008EE290E02EE230E0F90120812E7FFC0108
:1013A00020838EE290E02EE230E0F90120812D7F53
:1013B000FC0120831092020117C045DF15C006DF33
:1013C00013C08EE290E02EE230E0F90120812E7F02
:1013D000FC0120838EE290E02EE230E0F9012081D2
:1013E0002D7FFC01208300002CDD882F90E00097EA
:1013F00019F0019719F004C037DF15C0FDDE13C0E6
:101400008EE290E02EE230E0F90120812D7FFC0198
:1014100020838EE290E02EE230E0F90120812E7FE1
:10142000FC01208300008CE290E0FC018081882F89
:1014300090E081709927892B59F438DF813029F4A5
:10144000E6DE81E08093060103C01FDF10920601F3
:1014500080910401181634F580910301181614F5D3
:10146000809102011816F4F4809105011816D4F445
:10147000809106018823B1F08EE290E02EE230E008
:10148000F90120812260FC0120838EE290E02EE2AF
:1014900030E0F90120812160FC01208381E080930C
:1014A000170136C08091040118164CF08EE290E0CE
:1014B0002EE230E0F90120812E7FFC012083809113
:1014C000020118165CF08EE290E02EE230E0F901A5
:1014D00020812E7FFC01208310921701809103014F
:1014E00018164CF08EE290E02EE230E0F9012081F7
:1014F0002E7FFC0120838091050118164CF08EE2AE
:1015000090E02EE230E0F90120812D7FFC01208364
:101510000000DF91CF910895CF93DF93CDB7DEB771
:1015200080913F0190914001A0914101B091420111
:10153000BC01CD01DF91CF910895CF93DF93CDB75B
:10154000DEB781E890E021E830E0F90120812A60EF
:10155000FC0120838FE690E02FE630E0F901208146
:101560002260FC0120830000DF91CF910895CF938A
:10157000DF9300D000D0CDB7DEB769837A838B8349
:101580009C8320E030E040ED51E469817A818B81D9
:101590009C8164D1882344F480E090E0A0EDB1E424
:1015A00089839A83AB83BC8320E030E048E452E433
:1015B00069817A818B819C8133D2181644F480E052
:1015C00090E0A8E4B2E489839A83AB83BC8320E0F3
:1015D00030E040E951E469817A818B819C8124D299
:1015E000DC01CB0120E030E041EE54E4BC01CD0150
:1015F000D1D0DC01CB01BC01CD0134D1DC01CB0168
:101600000F900F900F900F90DF91CF910895CF938F
:10161000DF9300D000D0CDB7DEB769837A838B83A8
:101620009C8320E030E040E85FE369817A818B8130
:101630009C8114D1181624F019821A821B821C82F4
:1016400020E030E048EC52E469817A818B819C8112
:10165000E7D1181644F480E090E0A8ECB2E4898366
:101660009A83AB83BC832FE832EC45E75EE3698164
:101670007A818B819C81D8D1DC01CB0120E030E0E4
:1016800040ED51E4BC01CD0185D0DC01CB01BC01B2
:10169000CD010F900F900F900F90DF91CF91089593
:1016A0001F920F9200905F000F92112400905B0038
:1016B0000F922F933F934F935F938F939F93EF934B
:1016C000FF93CF93DF93CDB7DEB7F89480911801E5
:1016D000882F90E0009719F0019759F145C080914B
:1016E0001701813049F48EE290E02EE230E0F901FA
:1016F00020812460FC01208388E890E02091000193
:1017000030910101FC013183208320910701309148
:1017100008018091000190910101A901481B590B1A
:10172000CA01909308018093070181E0809318011A
:101730001BC08EE290E02EE230E0F90120812B7F89
:10174000FC01208388E890E0209107013091080196
:10175000FC013183208380E29EE490930801809312
:10176000070110921801000078940000DF91CF91DA
:10177000FF91EF919F918F915F914F913F912F91A9
:101780000F9000925B000F9000925F000F901F90EF
:1017900018955058BB27AA270ED008C1F9D030F0B1
:1017A000FED020F031F49F3F11F41EF4EEC00EF491
:1017B000E095E7FBE4C0E92F0AD180F3BA1762078E
:1017C00073078407950718F071F49EF522C10EF493
:1017D000E0950B2EBA2FA02D0B01B90190010C0141
:1017E000CA01A0011124FF27591B99F0593F50F459
:1017F000503E68F11A16F040A22F232F342F4427B1
:10180000585FF3CF469537952795A795F0405395A8
:10181000C9F77EF41F16BA0B620B730B840BBAF078
:101820009150A1F0FF0FBB1F661F771F881FC2F7E3
:101830000EC0BA0F621F731F841F48F487957795F7
:101840006795B795F7959E3F08F0B3CF9395880FAE
:1018500008F09927EE0F9795879508956CD008F4B6
:1018600081E00895BCD088F09F5790F0B92F992758
:10187000B751A0F0D1F0660F771F881F991F1AF09B
:10188000BA95C9F712C0B13081F0C3D0B1E0089564
:10189000C0C0672F782F8827B85F39F0B93FCCF3E5
:1018A000869577956795B395D9F73EF49095809591
:1018B000709561957F4F8F4F9F4F0895E89409C0B1
:1018C00097FB3EF490958095709561957F4F8F4F73
:1018D0009F4F9923A9F0F92F96E9BB279395F69589
:1018E000879577956795B795F111F8CFFAF4BB0F07
:1018F00011F460FF1BC06F5F7F4F8F4F9F4F16C06B
:10190000882311F096E911C0772321F09EE8872FF4
:10191000762F05C0662371F096E8862F70E060E0B0
:101920002AF09A95660F771F881FDAF7880F969529
:10193000879597F90895990F0008550FAA0BE0E8CD
:10194000FEEF16161706E807F907C0F01216130681
:10195000E407F50798F0621B730B840B950B39F4C1
:101960000A2661F0232B242B252B21F408950A2627
:1019700009F4A140A6958FEF811D811D089597F967
:101980009F6780E870E060E008959FEF80EC089525
:1019900000240A941616170618060906089500244E
:1019A0000A9412161306140605060895092E0394C8
:1019B000000C11F4882352F0BB0F40F4BF2B11F43C
:1019C00060FF04C06F5F7F4F8F4F9F4F089557FD9B
:1019D0009058440F551F59F05F3F71F04795880F9D
:1019E00097FB991F61F09F3F79F087950895121634
:1019F00013061406551FF2CF4695F1DF08C01616E0
:101A000017061806991FF1CF869571056105089490
:101A10000895E894BB2766277727CB0197F90895A7
:101A20008ADF08F48FEF08950BD0C0CFB1DF28F024
:101A3000B6DF18F0952309F0A2CFA7CF1124EACF83
:101A4000C6DFA0F3959FD1F3950F50E0551F629F1D
:101A5000F001729FBB27F00DB11D639FAA27F00D07
:101A6000B11DAA1F649F6627B00DA11D661F829F2E
:101A70002227B00DA11D621F739FB00DA11D621F13
:101A8000839FA00D611D221F749F3327A00D611D30
:101A9000231F849F600D211D822F762F6A2F112412
:101AA0009F5750408AF0E1F088234AF0EE0FFF1F65
:101AB000BB1F661F771F881F91505040A9F79E3F9C
:101AC000510570F05CCFA6CF5F3FECF3983EDCF39E
:101AD000869577956795B795F795E7959F5FC1F7D9
:101AE000FE2B880F911D9695879597F90895F89488
:021AF000FFCF26
:0A1AF200D0073232643201204E00AA
:00000001FF
